:100000000C942A000C94260C0C945C0C0C94920C0E
:100010000C9447000C9447000C9447000C94470044
:100020000C9447000C9447000C9447000C94470034
:100030000C9447000C9447000C9447000C94470024
:100040000C9447000C9447000C9447000C94470014
:100050000C94470011241FBECFE5D4E0DEBFCDBF16
:1000600010E0A0E6B0E0E0E8F9E202C005900D92F1
:10007000AC37B107D9F710E0ACE7B0E001C01D9292
:10008000A238B107E1F70E94EB130C94BE140C9454
:100090000000EF92FF920F931F937B018C0120E0F1
:1000A00030E040E05FE40E94490388238CF0C801FF
:1000B000B70120E030E040E05FE40E94C1010E940F
:1000C000A9039B01AC01205030404040504806C07D
:1000D000C801B7010E94A9039B01AC01B901CA0183
:1000E0001F910F91FF90EF900895A0E0B0E0EBE733
:1000F000F0E00C948714DC012B01FA019C91923002
:1001000008F439C1EB018881823008F433C194309E
:1001100069F4843009F02FC111969C91119789815F
:10012000981709F428C1A0E6B0E025C1843009F48D
:1001300021C18230A9F4923009F01DC19A01AD01AC
:1001400088E0EA010990AE01E90109929E0181501F
:10015000C1F7E201898111969C918923818308C1AD
:10016000923009F407C112962D903C901397EB0141
:100170008A819B811496AD90BD90CD90DC901797AD
:10018000EC80FD800E811F819101281B390BB90184
:1001900037FF04C066277727621B730B6032710537
:1001A0000CF061C0121613066CF537014801062EDB
:1001B00004C096948794779467940A94D2F721E0C8
:1001C00030E040E050E004C0220F331F441F551FB1
:1001D0006A95D2F721503040404050402E213F21B7
:1001E00040235123211531054105510521F021E01E
:1001F00030E040E050E079018A01E628F72808293C
:1002000019293CC0232BD1F1260E371E350146019A
:10021000062E04C096948794779467940A94D2F734
:1002200021E030E040E050E004C0220F331F441FC3
:10023000551F6A95D2F721503040404050402A2146
:100240003B214C215D21211531054105510521F04E
:1002500021E030E040E050E059016A01A628B728CB
:10026000C828D9280BC0821593052CF01C01AA249C
:10027000BB24650103C0EE24FF24870111969C91E5
:10028000D20111968C91981709F445C0992339F041
:10029000A80197012A193B094C095D0906C0A6016E
:1002A00095012E193F09400B510B57FD08C01182D3
:1002B0003382228224833583468357831DC081E0A5
:1002C00081833382228288279927DC01821B930B4A
:1002D000A40BB50B84839583A683B7830DC0220F2F
:1002E000331F441F551F24833583468357838281E0
:1002F000938101979383828324813581468157813D
:10030000DA01C9010197A109B1098F5F9F4FAF4F72
:10031000BF4328F30BC0918333822282EA0CFB1C7B
:100320000C1D1D1DE482F5820683178383E0808304
:10033000248135814681578157FF1AC0C901AA27F8
:1003400097FDA095BA2F81709070A070B0705695EF
:10035000479537952795822B932BA42BB52B848318
:100360009583A683B7838281938101969383828349
:10037000DF0101C0D201CD01CDB7DEB7E2E10C94BF
:10038000A314A0E2B0E0E7ECF1E00C9493146983CD
:100390007A838B839C832D833E834F835887E9E048
:1003A000EE2EF12CEC0EFD1ECE010196B7010E943F
:1003B000D2048E010F5E1F4FCE010596B8010E9438
:1003C000D2048A8991E089278A8BC701B801AE01DE
:1003D000475E5F4F0E9475000E94FD03A096E6E015
:1003E0000C94AF14A0E2B0E0E8EFF1E00C949314A9
:1003F00069837A838B839C832D833E834F835887C5
:10040000F9E0EF2EF12CEC0EFD1ECE010196B701A6
:100410000E94D2048E010F5E1F4FCE010596B801D7
:100420000E94D204C701B801AE01475E5F4F0E942F
:1004300075000E94FD03A096E6E00C94AF14A0E2C4
:10044000B0E0E5E2F2E00C94871469837A838B8351
:100450009C832D833E834F835887CE010196BE0136
:10046000675F7F4F0E94D204CE010596BE016F5E8A
:100470007F4F0E94D2049985923088F0898982301A
:10048000C8F0943019F4823051F404C0843029F457
:10049000923081F480E690E0C6C0923049F420E0CA
:1004A0009A858A89981321E02A87CE010996BBC0D4
:1004B000823049F420E09A858A89981321E02A8BBA
:1004C000CE014196B0C02D843E844F8458886D88FB
:1004D0007E888F88988CEE24FF248701AA24BB2471
:1004E000650140E050E060E070E0E0E0F0E0C10174
:1004F00081709070892BE9F0E60CF71C081D191D1E
:100500009A01AB012A0D3B1D4C1D5D1D80E090E062
:10051000A0E0B0E0E614F7040805190520F481E036
:1005200090E0A0E0B0E0BA01A901480F591F6A1F8E
:100530007B1FAA0CBB1CCC1CDD1C97FE08C081E0F5
:1005400090E0A0E0B0E0A82AB92ACA2ADB2A3196B6
:10055000E032F10549F0660C771C881C991C569412
:10056000479437942794C3CFFA85EA892B893C892D
:100570008B859C85280F391F2E5F3F4F17C0CA01FE
:1005800081709070892B61F016950795F794E79428
:1005900080E090E0A0E0B0E8E82AF92A0A2B1B2BC3
:1005A00076956795579547952F5F3F4F77FDE7CF36
:1005B0000CC0440F551F661F771F17FD4160EE0CDE
:1005C000FF1C001F111F21503040403090E05907A0
:1005D00090E0690790E4790760F32B8F3C8FDB0193
:1005E000CA018F779070A070B07080349105A1051A
:1005F000B10561F447FD0AC0E114F10401051105DC
:1006000029F0405C5F4F6F4F7F4F40781A8EFE1786
:1006100011F081E08A8F4D8F5E8F6F8F78A383E01A
:10062000898FCE0149960E94FD03A096E2E10C94C9
:10063000A314A8E1B0E0EFE1F3E00C949314698314
:100640007A838B839C832D833E834F83588789E0F5
:10065000E82EF12CEC0EFD1ECE010196B7010E9492
:10066000D2048E010F5E1F4FCE010596B8010E9485
:10067000D2048985823040F08989823028F0C70110
:10068000B8010E944A0501C08FEF6896E6E00C941D
:10069000AF14A8E1B0E0EFE4F3E00C9493146983A5
:1006A0007A838B839C832D833E834F83588789E095
:1006B000E82EF12CEC0EFD1ECE010196B7010E9432
:1006C000D2048E010F5E1F4FCE010596B8010E9425
:1006D000D2048985823040F08989823028F0C701B0
:1006E000B8010E944A0501C08FEF6896E6E00C94BD
:1006F000AF14A8E1B0E0EFE7F3E00C949314698342
:100700007A838B839C832D833E834F83588789E034
:10071000E82EF12CEC0EFD1ECE010196B7010E94D1
:10072000D2048E010F5E1F4FCE010596B8010E94C4
:10073000D2048985823040F08989823028F0C7014F
:10074000B8010E944A0501C081E06896E6E00C9479
:10075000AF14ACE0B0E0EFEAF3E00C9497146983D7
:100760007A838B839C83CE010196BE016B5F7F4FA2
:100770000E94D2048D81823061F1823050F1843048
:1007800021F48E81882351F12EC02F81388537FDC9
:1007900020C06E812F3131051CF06623F9F023C093
:1007A0008EE190E0821B930B29853A854B855C8511
:1007B00004C056954795379527958A95D2F76623B5
:1007C000B1F050954095309521953F4F4F4F5F4F79
:1007D0000EC020E030E040E050E009C02FEF3FEFD6
:1007E0004FEF5FE704C020E030E040E050E8B9019F
:1007F000CA012C96E2E00C94B314DF92EF92FF92C0
:100800000F931F93FC01E480F58006811781D1804E
:100810008081823048F480E090E0A0E1B0E0E82AF6
:10082000F92A0A2B1B2BA5C0843009F49FC0823003
:1008300021F4EE24FF24870105C0E114F104010531
:10084000110519F4E0E0F0E096C0628173819FEF3A
:10085000623879070CF05BC022E83FEF261B370BAC
:100860002A3131052CF020E030E040E050E02AC091
:10087000B801A701022E04C0769567955795479554
:100880000A94D2F781E090E0A0E0B0E004C0880FC5
:10089000991FAA1FBB1F2A95D2F70197A109B10979
:1008A0008E219F21A023B1230097A105B10521F03E
:1008B00081E090E0A0E0B0E09A01AB01282B392B59
:1008C0004A2B5B2BDA01C9018F779070A070B07052
:1008D00080349105A105B10539F427FF09C0205CDA
:1008E0003F4F4F4F5F4F04C0215C3F4F4F4F5F4F13
:1008F000E0E0F0E02030A0E03A07A0E04A07A0E402
:100900005A0710F0E1E0F0E079018A0127C0603871
:10091000710564F5FB01E158FF4FD801C7018F77DE
:100920009070A070B07080349105A105B10539F4C4
:10093000E7FE0DC080E490E0A0E0B0E004C08FE3EB
:1009400090E0A0E0B0E0E80EF91E0A1F1B1F17FFA1
:1009500005C016950795F794E794319687E01695AC
:100960000795F794E7948A95D1F705C0EE24FF2404
:100970008701EFEFF0E06E2F679566276795902F60
:100980009F77D794DD24D7948E2F8695492F462BB9
:10099000582F5D29B701CA011F910F91FF90EF9069
:1009A000DF900895FC01DB01408151812281622F9B
:1009B0006F7770E0221F2227221F9381892F880FD3
:1009C000822B282F30E0991F9927991F11969C930D
:1009D000119721153105A9F54115510561057105DD
:1009E00011F482E037C082E89FEF13969C938E93B8
:1009F00012979A01AB0167E0220F331F441F551F66
:100A00006A95D1F783E08C930DC0220F331F441FEA
:100A1000551F12968D919C911397019713969C9355
:100A20008E931297203080E0380780E0480780E4FA
:100A3000580758F314962D933D934D935C93179755
:100A400008952F3F310579F4411551056105710570
:100A500019F484E08C93089564FF03C081E08C93C3
:100A600012C01C9210C02F57304013963C932E9307
:100A7000129783E08C9387E0440F551F661F771F02
:100A80008A95D1F7706414964D935D936D937C9322
:100A9000179708951F93DC01FB019C91923008F495
:100AA00047C08081823008F443C0943051F41196DD
:100AB0001C91843099F58181682F70E0611B710968
:100AC0003FC0843021F0923031F48230B9F181811D
:100AD000882389F12DC011961C9111978230F1F075
:100AE00081811817D9F412962D913C911397828128
:100AF00093818217930794F028173907BCF0149656
:100B00008D919D910D90BC91A02D248135814681C0
:100B10005781281739074A075B0718F4112341F05A
:100B20000AC082179307A407B50740F4112319F0F0
:100B300061E070E005C06FEF7FEF02C060E070E041
:100B4000CB011F910895DF93CF93CDB7DEB72897E0
:100B50000FB6F894DEBF0FBECDBF8A836B834C8384
:100B600081E089838A81843008F0F1C08B818830EC
:100B700008F0EDC08C81813009F06FC08A81282F88
:100B800030E038872F838F8198858130910549F136
:100B90002F813885223031052CF48F81988500977C
:100BA00061F0D6C02F8138852230310571F18F81F7
:100BB000988583309105E9F1CBC0AAE3B0E0EAE380
:100BC000F0E08081482F8B81282F30E081E090E099
:100BD000022E02C0880F991F0A94E2F7842B8C938F
:100BE000B7C0A7E3B0E0E7E3F0E08081482F8B8156
:100BF000282F30E081E090E0022E02C0880F991F7C
:100C00000A94E2F7842B8C93A3C0A4E3B0E0E4E35E
:100C1000F0E08081482F8B81282F30E081E090E048
:100C2000022E02C0880F991F0A94E2F7842B8C933E
:100C30008FC0A1E3B0E0E1E3F0E08081482F8B8139
:100C4000282F30E081E090E0022E02C0880F991F2B
:100C50000A94E2F7842B8C937BC08C81882309F063
:100C600074C08A81282F30E03E832D838D819E8140
:100C70008130910559F12D813E81223031052CF4CE
:100C80008D819E81009769F063C02D813E81223065
:100C9000310589F18D819E818330910509F440C031
:100CA00057C0AAE3B0E0EAE3F0E08081482F8B81EF
:100CB000282F30E081E090E0022E02C0880F991FBB
:100CC0000A94E2F7809584238C9342C0A7E3B0E0B6
:100CD000E7E3F0E08081482F8B81282F30E081E02E
:100CE00090E0022E02C0880F991F0A94E2F78095C7
:100CF00084238C932DC0A4E3B0E0E4E3F0E0808192
:100D0000482F8B81282F30E081E090E0022E02C036
:100D1000880F991F0A94E2F7809584238C9318C05A
:100D2000A1E3B0E0E1E3F0E08081482F8B81282F40
:100D300030E081E090E0022E02C0880F991F0A94F3
:100D4000E2F7809584238C9303C0198201C0198235
:100D5000898128960FB6F894DEBF0FBECDBFCF9124
:100D6000DF910895DF93CF93CDB7DEB728970FB605
:100D7000F894DEBF0FBECDBF8A836B834C8381E0C6
:100D800089838A81843008F0F1C08B81883008F033
:100D9000EDC08C81813009F06FC08A81282F30E04E
:100DA00038872F838F8198858130910549F12F8174
:100DB0003885223031052CF48F819885009761F0B9
:100DC000D6C02F8138852230310571F18F81988509
:100DD00083309105E9F1CBC0ABE3B0E0EBE3F0E0A9
:100DE0008081482F8B81282F30E081E090E0022E17
:100DF00002C0880F991F0A94E2F7842B8C93B7C026
:100E0000A8E3B0E0E8E3F0E08081482F8B81282F51
:100E100030E081E090E0022E02C0880F991F0A9412
:100E2000E2F7842B8C93A3C0A5E3B0E0E5E3F0E008
:100E30008081482F8B81282F30E081E090E0022EC6
:100E400002C0880F991F0A94E2F7842B8C938FC0FD
:100E5000A2E3B0E0E2E3F0E08081482F8B81282F0D
:100E600030E081E090E0022E02C0880F991F0A94C2
:100E7000E2F7842B8C937BC08C81882309F074C0AB
:100E80008A81282F30E03E832D838D819E818130A1
:100E9000910559F12D813E81223031052CF48D814F
:100EA0009E81009769F063C02D813E81223031051B
:100EB00089F18D819E818330910509F440C057C02E
:100EC000ABE3B0E0EBE3F0E08081482F8B81282F8B
:100ED00030E081E090E0022E02C0880F991F0A9452
:100EE000E2F7809584238C9342C0A8E3B0E0E8E366
:100EF000F0E08081482F8B81282F30E081E090E066
:100F0000022E02C0880F991F0A94E2F7809584236D
:100F10008C932DC0A5E3B0E0E5E3F0E08081482F9D
:100F20008B81282F30E081E090E0022E02C0880FF4
:100F3000991F0A94E2F7809584238C9318C0A2E34A
:100F4000B0E0E2E3F0E08081482F8B81282F30E091
:100F500081E090E0022E02C0880F991F0A94E2F708
:100F6000809584238C9303C0198201C019828981E2
:100F700028960FB6F894DEBF0FBECDBFCF91DF919C
:100F80000895DF93CF93CDB7DEB727970FB6F894C8
:100F9000DEBF0FBECDBF8A836B835D834C8381E050
:100FA00089838A81843008F0A6C08B81883008F05C
:100FB000A2C08A81282F30E03F832E834E815F813B
:100FC00041305105C1F18E819F818230910534F409
:100FD0002E813F812115310571F08EC04E815F81D8
:100FE0004230510509F447C08E819F8183309105BD
:100FF00009F461C081C0E9E3F0E08081482F50E04E
:101000008B81282F30E081E090E002C0880F991F8B
:101010002A95E2F79A01282339238B81882F90E0C3
:10102000A90102C0559547958A95E2F7CA01EC815E
:10103000FD81808361C0E6E3F0E08081482F50E0CD
:101040008B81282F30E081E090E002C0880F991F4B
:101050002A95E2F79A01282339238B81882F90E083
:10106000A90102C0559547958A95E2F7CA01EC811E
:10107000FD81808341C0E3E3F0E08081482F50E0B0
:101080008B81282F30E081E090E002C0880F991F0B
:101090002A95E2F79A01282339238B81882F90E043
:1010A000A90102C0559547958A95E2F7CA01EC81DE
:1010B000FD81808321C0E0E3F0E08081482F50E093
:1010C0008B81282F30E081E090E002C0880F991FCB
:1010D0002A95E2F79A01282339238B81882F90E003
:1010E000A90102C0559547958A95E2F7CA01EC819E
:1010F000FD81808301C01982898127960FB6F894FB
:10110000DEBF0FBECDBFCF91DF910895DF93CF93A8
:1011100000D000D00F92CDB7DEB78A836B8381E019
:1011200089838B81883008F06FC08A81282F30E056
:101130003D832C838C819D818130910549F12C81E7
:101140003D81223031052CF48C819D81009761F026
:101150005CC02C813D812230310571F18C819D81F3
:1011600083309105E9F151C0ABE3B0E0EBE3F0E08F
:101170008081482F8B81282F30E081E090E0022E83
:1011800002C0880F991F0A94E2F784278C933DC010
:10119000A8E3B0E0E8E3F0E08081482F8B81282FBE
:1011A00030E081E090E0022E02C0880F991F0A947F
:1011B000E2F784278C9329C0A5E3B0E0E5E3F0E0F3
:1011C0008081482F8B81282F30E081E090E0022E33
:1011D00002C0880F991F0A94E2F784278C9315C0E8
:1011E000A2E3B0E0E2E3F0E08081482F8B81282F7A
:1011F00030E081E090E0022E02C0880F991F0A942F
:10120000E2F784278C9301C0198289810F900F9097
:101210000F900F900F90CF91DF910895DF93CF93B0
:1012200000D000D00F92CDB7DEB78A836B8381E008
:1012300089838A818430A8F58A81282F30E03D8314
:101240002C838C819D8181309105D1F02C813D8151
:10125000223031052CF48C819D81009761F01FC0F4
:101260002C813D812230310581F08C819D8183303C
:10127000910581F014C0EAE3F0E08B81808312C015
:10128000E7E3F0E08B8180830DC0E4E3F0E08B8145
:10129000808308C0E1E3F0E08B81808303C0198282
:1012A00001C0198289810F900F900F900F900F90BD
:1012B000CF91DF910895DF93CF9300D000D00F92AC
:1012C000CDB7DEB78A836B8381E089838A818430DE
:1012D000A8F58A81282F30E03D832C838C819D8165
:1012E00081309105D1F02C813D81223031052CF4E3
:1012F0008C819D81009761F01FC02C813D8122303F
:10130000310581F08C819D818330910581F014C07D
:10131000EBE3F0E08B81808312C0E8E3F0E08B81A7
:1013200080830DC0E5E3F0E08B81808308C0E2E3B9
:10133000F0E08B81808303C0198201C0198289810A
:101340000F900F900F900F900F90CF91DF91089515
:10135000DF93CF9300D000D0CDB7DEB78A8381E092
:1013600089838A81843008F03FC08A81282F30E049
:101370003C832B838B819C8181309105E9F02B810B
:101380003C81223031052CF48B819C81009761F0E7
:101390002CC02B813C8122303105B1F08B819C81A6
:1013A00083309105C9F021C0ABE3B0E0EBE3F0E09E
:1013B000808180958C9319C0A8E3B0E0E8E3F0E069
:1013C000808180958C9311C0A5E3B0E0E5E3F0E067
:1013D000808180958C9309C0A2E3B0E0E2E3F0E065
:1013E000808180958C9301C0198289810F900F9024
:1013F0000F900F90CF91DF910895DF93CF9300D09E
:1014000000D000D0CDB7DEB78A837C836B8381E0C8
:1014100089838A818430E8F58A81282F30E03E83F1
:101420002D838D819E8181309105E1F02D813E815A
:10143000223031052CF48D819E81009761F027C008
:101440002D813E8122303105A1F08D819E81833036
:101450009105B1F01CC0E9E3F0E08081EB81FC81F3
:10146000808318C0E6E3F0E08081EB81FC8180831B
:1014700011C0E3E3F0E08081EB81FC8180830AC04E
:10148000E0E3F0E08081EB81FC81808303C019827E
:1014900001C01982898126960FB6F894DEBF0FBE6F
:1014A000CDBFCF91DF910895DF93CF93CDB7DEB756
:1014B000A5E5B0E0E5E5F0E080818E7F8C93A5E5C1
:1014C000B0E0E5E5F0E0808182608C93CF91DF9120
:1014D0000895DF93CF9300D000D000D0CDB7DEB712
:1014E00089836A838A81863008F4D4C08A818830EF
:1014F00008F0D0C08A81882F90E00697880F991F46
:101500008A838981282F30E03E832D838D819E81BF
:101510008130910509F495C02D813E81223031053D
:1015200034F48D819E81009709F461C0D1C02D8172
:101530003E812230310531F08D819E8183309105CD
:1015400061F1C6C0A5E5B0E0E5E5F0E08081482F97
:101550008A81282F30E081E090E002C0880F991F37
:101560002A95E2F7809584238C93A5E5B0E0E5E524
:10157000F0E08081482F8A81882F90E09C012F5FC6
:101580003F4F81E090E0022E02C0880F991F0A941D
:10159000E2F7809584238C939BC0A5E5B0E0E5E558
:1015A000F0E08081482F8A81282F30E081E090E0B0
:1015B00002C0880F991F2A95E2F7842B8C93A5E52A
:1015C000B0E0E5E5F0E08081482F8A81882F90E047
:1015D0009C012F5F3F4F81E090E0022E02C0880FF8
:1015E000991F0A94E2F7809584238C9371C0A5E536
:1015F000B0E0E5E5F0E08081482F8A81282F30E0D7
:1016000081E090E002C0880F991F2A95E2F780954B
:1016100084238C93A5E5B0E0E5E5F0E08081482FD8
:101620008A81882F90E09C012F5F3F4F81E090E0FE
:10163000022E02C0880F991F0A94E2F7842B8C9324
:1016400047C0A5E5B0E0E5E5F0E08081482F8A815C
:10165000282F30E081E090E002C0880F991F2A9582
:10166000E2F7842B8C93A5E5B0E0E5E5F0E080811E
:10167000482F8A81882F90E09C012F5F3F4F81E0A7
:1016800090E0022E02C0880F991F0A94E2F7842B83
:101690008C931EC08981282F30E03C832B838B8163
:1016A0009C81009731F02B813C812130310549F03C
:1016B0000FC0A4E5B0E0E4E5F0E080818F7B8C937F
:1016C00007C0A4E5B0E0E4E5F0E0808180648C939D
:1016D00026960FB6F894DEBF0FBECDBFCF91DF9137
:1016E0000895DF93CF9300D0CDB7DEB78A8381E032
:1016F00089838A818630C0F08A818730A8F4ABE57F
:10170000B0E0EBE5F0E08081482F8A81282F30E0BF
:1017100081E090E0022E02C0880F991F0A94E2F740
:10172000809584238C9301C0198289810F900F903A
:10173000CF91DF910895DF93CF9300D0CDB7DEB77F
:101740008A8381E089838A818630B8F08A818730F4
:10175000A0F4ABE5B0E0EBE5F0E08081482F8A81B2
:10176000282F30E081E090E0022E02C0880F991F00
:101770000A94E2F7842B8C9301C0198289810F901F
:101780000F90CF91DF910895DF93CF930F92CDB754
:10179000DEB78983AAE5B0E0EAE5F0E08081482F72
:1017A0008981282F30E081E090E0022E02C0880F6E
:1017B000991F0A94E2F7842B8C930F90CF91DF91BD
:1017C0000895DF93CF930F92CDB7DEB78983EAE513
:1017D000F0E08081482F50E08981282F30E081E0BF
:1017E00090E002C0880F991F2A95E2F79A012823FA
:1017F00039238981882F90E0A90102C0559547952A
:101800008A95E2F7CA010F90CF91DF910895DF9397
:10181000CF9300D00F92CDB7DEB79A8389836B83C5
:1018200089819A81009761F08B81882F90E0880FE1
:10183000991FFC01E458FF4F89819A81918380832D
:101840000F900F900F90CF91DF9108951F920F92FC
:101850000FB60F9211242F933F934F935F936F9383
:101860007F938F939F93AF93BF93EF93FF93DF93F8
:10187000CF93CDB7DEB780917C0090917D0000972B
:1018800041F0E0917C00F0917D00099586E00E9496
:10189000C40BCF91DF91FF91EF91BF91AF919F91D9
:1018A0008F917F916F915F914F913F912F910F9009
:1018B0000FBE0F901F9018951F920F920FB60F92A8
:1018C00011242F933F934F935F936F937F938F9345
:1018D0009F93AF93BF93EF93FF93DF93CF93CDB7D6
:1018E000DEB780917E0090917F00009741F0E091FB
:1018F0007E00F0917F00099587E00E94C40BCF9194
:10190000DF91FF91EF91BF91AF919F918F917F9167
:101910006F915F914F913F912F910F900FBE0F905C
:101920001F9018951F920F920FB60F9211242F93AC
:101930003F934F935F936F937F938F939F93AF9357
:10194000BF93EF93FF93DF93CF93CDB7DEB7809133
:10195000800090918100009741F0E0918000F0912B
:101960008100099585E00E94C40BCF91DF91FF9122
:10197000EF91BF91AF919F918F917F916F915F9107
:101980004F913F912F910F900FBE0F901F90189580
:10199000DF93CF93CDB7DEB7AFE5B0E0EFE5F0E092
:1019A000808180688C93CF91DF910895DF93CF93EE
:1019B000CDB7DEB7AFE5B0E0EFE5F0E080818F773F
:1019C0008C93CF91DF910895DF93CF9300D00F9246
:1019D000CDB7DEB769837A838B8389819A81692F3A
:1019E00041E00E94A3050F900F900F90CF91DF91DF
:1019F0000895DF93CF9300D00F92CDB7DEB7698300
:101A00007A838B838B81813039F489819A81692F24
:101A100041E00E94B20609C08B81882331F489819C
:101A20009A81692F40E00E94B2060F900F900F90AC
:101A3000CF91DF910895DF93CF9300D00F92CDB770
:101A4000DEB769837A838B838B81813039F4898116
:101A50009A81692F40E00E94B20609C08B818823D9
:101A600031F489819A81692F41E00E94B2060F907A
:101A70000F900F90CF91DF910895DF93CF9300D017
:101A80000F92CDB7DEB769837A838B8389819A8180
:101A9000692F0E9486080F900F900F90CF91DF91D1
:101AA0000895DF93CF9300D000D0CDB7DEB7698320
:101AB0007A838B839C838A816FEF0E940E090F903B
:101AC0000F900F900F90CF91DF910895DF93CF93F8
:101AD00000D000D00F92CDB7DEB769837A838B83B5
:101AE0009C834D838981882369F42A818D81882F85
:101AF00090E0FC01E859FF4F9081822F692F0E94EE
:101B00005B0911C08981813071F42A818D81882F10
:101B100090E0FC01E859FF4F8081982F9095822F2B
:101B2000692F0E945B090F900F900F900F900F90FC
:101B3000CF91DF910895DF93CF9300D000D0CDB740
:101B4000DEB769837A838B839C838981882369F4D8
:101B50008B819C81692F41E00E94A3058B819C8130
:101B6000692F40E00E94B2060FC08981813061F484
:101B70008B819C81692F41E00E94A3058B819C8110
:101B8000692F41E00E94B2060F900F900F900F90C6
:101B9000CF91DF910895DF93CF9300D000D0CDB7E0
:101BA000DEB769837A838B839C838981882369F478
:101BB0008B819C81692F41E00E94A3058B819C81D0
:101BC000692F41E00E94B2060FC08981813061F423
:101BD0008B819C81692F41E00E94A3058B819C81B0
:101BE000692F40E00E94B2060F900F900F900F9067
:101BF000CF91DF910895EF920F931F93DF93CF93CF
:101C0000CDB7DEB7CC56D0400FB6F894DEBF0FBECE
:101C1000CDBFFE01ED59FF4F6083718382839383B3
:101C2000FE01E959FF4F2083318342835383FE0134
:101C3000E559FF4F0083FE01E459FF4FE082FE01AA
:101C4000E459FF4F8081813009F062C2FE01EE59F4
:101C5000FF4F108251C2DE01AF59BF4FFE01EE5956
:101C6000FF4F80819AE0692F0E947B14892F8C930B
:101C7000DE01A05ABF4FFE01EE59FF4F80819AE06E
:101C8000692F0E947B148C93FE01E25AFF4F84E679
:101C900090E091838083FE01E45AFF4F118210820D
:101CA00013C2FE01E05AFF4F8081882309F4DAC095
:101CB000FE01E959FF4F80819181A281B381BC016E
:101CC000CD010E949B0DFE01ED59FF4F8081918156
:101CD000A281B381BC01CD010E94CB0DFE01E95967
:101CE000FF4F80819181A281B381FE01E05AFF4FB5
:101CF000BC01CD0140810E94660DFE01EF5AFF4FED
:101D000080E090E0A0E8BFE380839183A283B38367
:101D10008E01035B1F4FFE01EF5AFF4F60817181FF
:101D20008281938120E030E04AE753E40E941F0261
:101D3000DC01CB01F80180839183A283B383FE0190
:101D4000E35BFF4F608171818281938120E030E00D
:101D500040E85FE30E947903882344F4FE01E55BD9
:101D6000FF4F81E090E09183808364C0FE01E35BDC
:101D7000FF4F608171818281938120E03FEF4FE7C7
:101D800057E40E94190318160CF043C0FE01EF5AE5
:101D9000FF4F608171818281938120E030E040E2D9
:101DA00051E40E941F02DC01CB018E01055B1F4F35
:101DB000BC01CD010E944900DC01CB01F8019183F7
:101DC00080831FC0FE01E75BFF4F89E190E09183B4
:101DD0008083FE01E75BFF4F808191810197F1F7DE
:101DE000FE01E75BFF4F91838083DE01A55BBF4F60
:101DF000FE01E55BFF4F80819181019711969C93D5
:101E00008E93FE01E55BFF4F808191810097D1F6B3
:101E1000B9C08E01055B1F4FFE01E35BFF4F608180
:101E20007181828193810E944900DC01CB01F8011C
:101E300091838083DE01A95BBF4FFE01E55BFF4F0D
:101E40008081918111969C938E93FE01E95BFF4FF7
:101E5000808191810197F1F7FE01E95BFF4F91834A
:101E6000808390C0FE01E959FF4F80819181A2815A
:101E7000B381BC01CD010E94CB0DFE01ED5BFF4F94
:101E800080E090E0A0E8BFE380839183A283B383E6
:101E90008E01015C1F4FFE01ED5BFF4F6081718180
:101EA0008281938120E030E04AE753E40E941F02E0
:101EB000DC01CB01F80180839183A283B383FE010F
:101EC000FF96608171818281938120E030E040E85B
:101ED0005FE30E94790388232CF481E090E09EAFB9
:101EE0008DAF46C0FE01FF96608171818281938132
:101EF00020E03FEF4FE757E40E941903181664F5FE
:101F0000FE01ED5BFF4F608171818281938120E052
:101F100030E040E251E40E941F02DC01CB01BC0131
:101F2000CD010E944900DC01CB019EAF8DAF0FC0F7
:101F300089E190E09CAF8BAF8BAD9CAD0197F1F741
:101F40009CAF8BAF8DAD9EAD01979EAF8DAF8DAD2C
:101F50009EAD009769F716C0FE01FF966081718102
:101F6000828193810E944900DC01CB019EAF8DAF3D
:101F70008DAD9EAD9AAF89AF89AD9AAD0197F1F75E
:101F80009AAF89AFFE01ED59FF4F80819181A28107
:101F9000B381BC01CD010E949B0DFE01E959FF4FA9
:101FA00080819181A281B381BC01CD010E94CB0DC2
:101FB000FE01ED59FF4F80819181A281B381FE0125
:101FC000EF59FF4FBC01CD0140810E94660D80E0BA
:101FD00090E0A0E8BFE38DAB9EABAFABB8AF6DA90F
:101FE0007EA98FA998AD20E030E04AE753E40E9433
:101FF0001F02DC01CB0189AB9AABABABBCAB69A9CF
:102000007AA98BA99CA920E030E040E85FE30E9418
:10201000790388232CF481E090E098AB8FA73FC030
:1020200069A97AA98BA99CA920E03FEF4FE757E463
:102030000E94190318164CF56DA97EA98FA998ADB9
:1020400020E030E040E251E40E941F02DC01CB01BD
:10205000BC01CD010E944900DC01CB0198AB8FA7E8
:102060000FC089E190E09EA78DA78DA59EA5019741
:10207000F1F79EA78DA78FA598A9019798AB8FA779
:102080008FA598A9009769F714C069A97AA98BA9A7
:102090009CA90E944900DC01CB0198AB8FA78FA5BA
:1020A00098A99CA78BA78BA59CA50197F1F79CA746
:1020B0008BA7DE01A45ABF4FFE01E45AFF4F808177
:1020C000918101968D939C93FE01E45AFF4FDE01AE
:1020D000A25ABF4F208131818D919C911197281771
:1020E000390708F4DECDDE01AE59BF4FFE01EE59CF
:1020F000FF4F80818F5F8C93FE01EE59FF4FDE0111
:10210000A559BF4F90818C91891708F0A4CD13C2B7
:10211000FE01E459FF4F8081882309F00CC2FE01C3
:10212000E55AFF4FDE01A559BF4F8C918083FCC15A
:10213000DE01A65ABF4FFE01E55AFF4F80819AE0AB
:10214000692F0E947B14892F8C93DE01A75ABF4F01
:10215000FE01E55AFF4F80819AE0692F0E947B14AF
:102160008C93FE01E95AFF4F84E690E091838083CF
:10217000FE01EB5AFF4F11821082BEC1FE01E75AE9
:10218000FF4F8081882309F498C0FE01E959FF4F71
:1021900080819181A281B381BC01CD010E949B0D00
:1021A000FE01ED59FF4F80819181A281B381BC0175
:1021B000CD010E94CB0DFE01E959FF4F8081918135
:1021C000A281B381FE01E75AFF4FBC01CD014081DE
:1021D0000E94660D80E090E0A0E8BFE38FA398A77F
:1021E000A9A7BAA76FA178A589A59AA520E030E094
:1021F0004AE753E40E941F02DC01CB018BA39CA39E
:10220000ADA3BEA36BA17CA18DA19EA120E030E077
:1022100040E85FE30E94790388232CF481E090E09A
:102220009AA389A33FC06BA17CA18DA19EA120E0B0
:102230003FEF4FE757E40E94190318164CF56FA1C2
:1022400078A589A59AA520E030E040E251E40E94FB
:102250001F02DC01CB01BC01CD010E944900DC0161
:10226000CB019AA389A30FC089E190E098A38F8F37
:102270008F8D98A10197F1F798A38F8F89A19AA1CB
:1022800001979AA389A389A19AA1009769F792C09F
:102290006BA17CA18DA19EA10E944900DC01CB0114
:1022A0009AA389A389A19AA19E8F8D8F8D8D9E8DD2
:1022B0000197F1F79E8F8D8F7DC0FE01E959FF4F89
:1022C00080819181A281B381BC01CD010E94CB0D9F
:1022D00080E090E0A0E8BFE3898F9A8FAB8FBC8F3E
:1022E000698D7A8D8B8D9C8D20E030E04AE753E438
:1022F0000E941F02DC01CB018D8B9E8BAF8BB88FB0
:102300006D897E898F89988D20E030E040E85FE319
:102310000E94790388232CF481E090E09C8B8B8BC6
:102320003FC06D897E898F89988D20E03FEF4FE710
:1023300057E40E94190318164CF5698D7A8D8B8D20
:102340009C8D20E030E040E251E40E941F02DC015D
:10235000CB01BC01CD010E944900DC01CB019C8B6B
:102360008B8B0FC089E190E09A8B898B89899A8940
:102370000197F1F79A8B898B8B899C8901979C8BAC
:102380008B8B8B899C89009769F714C06D897E8936
:102390008F89988D0E944900DC01CB019C8B8B8B2F
:1023A0008B899C89988B8F878F8598890197F1F706
:1023B000988B8F87FE01ED59FF4F80819181A2811B
:1023C000B381BC01CD010E949B0DFE01E959FF4F75
:1023D00080819181A281B381BC01CD010E94CB0D8E
:1023E000FE01ED59FF4F80819181A281B381FE01F1
:1023F000E65AFF4FBC01CD0140810E94660D80E08E
:1024000090E0A0E8BFE38B879C87AD87BE876B8594
:102410007C858D859E8520E030E04AE753E40E946C
:102420001F02DC01CB018F839887A987BA876F8150
:10243000788589859A8520E030E040E85FE30E9456
:10244000790388232CF481E090E09E838D833FC044
:102450006F81788589859A8520E03FEF4FE757E4C3
:102460000E94190318164CF56B857C858D859E8519
:1024700020E030E040E251E40E941F02DC01CB0189
:10248000BC01CD010E944900DC01CB019E838D83FC
:102490000FC089E190E09C838B838B819C810197A5
:1024A000F1F79C838B838D819E8101979E838D8321
:1024B0008D819E81009769F714C06F817885898529
:1024C0009A850E944900DC01CB019E838D838D811A
:1024D0009E819A83898389819A810197F1F79A83F2
:1024E0008983DE01AB5ABF4FFE01EB5AFF4F80815B
:1024F000918101968D939C93FE01EB5AFF4FDE0173
:10250000A95ABF4F208131818D919C911197281735
:10251000390708F433CEDE01A55ABF4FFE01E55A54
:10252000FF4F808181508C93FE01E55AFF4F8081DF
:10253000882309F0FDCDC459DF4F0FB6F894DEBFF4
:102540000FBECDBFCF91DF911F910F91EF900895F6
:10255000DF93CF93CDB7DEB766970FB6F894DEBFA3
:102560000FBECDBF698B7A8B8B8B9C8B4D8B2E8B4B
:1025700089899A89AB89BC89BC01CD010E949B0DD8
:102580008E89813009F08FC081E090E0988B8F8731
:1025900081C02F8589899A89AB89BC89BC01CD010D
:1025A000422F0E94660D80E090E0AAE7B4E48B879A
:1025B0009C87AD87BE876B857C858D859E8520E059
:1025C00030E04AE753E40E941F02DC01CB018F8315
:1025D0009887A987BA876F81788589859A8520E051
:1025E00030E040E85FE30E94790388232CF481E027
:1025F00090E09E838D833FC06F81788589859A8521
:1026000020E03FEF4FE757E40E94190318164CF5FE
:102610006B857C858D859E8520E030E040E251E42D
:102620000E941F02DC01CB01BC01CD010E944900C8
:10263000DC01CB019E838D830FC089E190E09C83F8
:102640008B838B819C810197F1F79C838B838D8198
:102650009E8101979E838D838D819E81009769F76E
:1026600014C06F81788589859A850E944900DC01B4
:10267000CB019E838D838D819E819A8389838981FD
:102680009A810197F1F79A8389838F8598890196BA
:10269000988B8F878D89282F30E08F859889281710
:1026A000390708F076CF66960FB6F894DEBF0FBEF6
:1026B000CDBFCF91DF9108950F93DF93CF93CDB727
:1026C000DEB728970FB6F894DEBF0FBECDBF698383
:1026D0007A838B839C834D833F832E8308878D81F0
:1026E000813029F4EE81FF8181E0808307C08D81F4
:1026F000882321F4EE81FF818885808328960FB698
:10270000F894DEBF0FBECDBFCF91DF910F9108953A
:10271000DF93CF9300D00F92CDB7DEB769837A8372
:102720008B8389819A81692F40E00E94A3058B8168
:10273000882331F489819A81692F41E00E94B20691
:102740000F900F900F90CF91DF910895DF93CF936B
:1027500000D000D00F92CDB7DEB76B837C838D8322
:1027600019821A828D81882319F08D818130A1F41C
:102770008B819C819E012E5F3F4F692FA9010E9492
:10278000C1078A81882319F481E089831BC08A816B
:102790008130C1F4198216C08D81823099F48B8109
:1027A0009C819E012E5F3F4F692FA9010E94C107A6
:1027B0008A81882311F4198205C08A81813011F43D
:1027C00081E0898389810F900F900F900F900F9077
:1027D000CF91DF910895DF93CF93CDB7DEB76497A4
:1027E0000FB6F894DEBF0FBECDBF81E0898382E0D3
:1027F0008A8383E08B831C82CE0105969C878B871E
:10280000E8E7F0E0FE87ED87F3E0FF87ED85FE85E2
:1028100000808D859E8501969E878D87EB85FC8542
:1028200000828B859C8501969C878B879F85915024
:102830009F87EF85EE2351F7CE010896998B888B01
:10284000E5E7F0E0FB8BEA8BF3E0FC8BEA89FB89A0
:1028500000808A899B8901969B8B8A8BE889F989FC
:102860000082888999890196998B888B9C899150DF
:102870009C8BEC89EE2351F760917200709173008C
:10288000809174000E94E40C60917200709173005A
:10289000809174000E94F90C89819A81AB81BC817E
:1028A000BC01CD010E94510D6D817E818F810E94FE
:1028B0008813688579858A850E9488130E94540A46
:1028C0008CE694E166E00E94070C0E94C80C86E04A
:1028D0000E949B0B7894FFCFDF93CF93CDB7DEB7E9
:1028E0006091720070917300809174000E943D0DA0
:1028F000CF91DF910895991B79E004C0991F961735
:1029000008F0961B881F7A95C9F7809508952F9235
:102910003F924F925F926F927F928F929F92AF926F
:10292000BF92CF92DF92EF92FF920F931F93CF93BC
:10293000DF93CDB7DEB7CA1BDB0B0FB6F894DEBF53
:102940000FBECDBF09942A88398848885F846E8479
:102950007D848C849B84AA84B984C884DF80EE80C3
:10296000FD800C811B81AA81B981CE0FD11D0FB6CC
:10297000F894DEBF0FBECDBFED010895F894FFCFF0
:1029800000000000000000003F065B4F666D7D0701
:0C2990007F6F0307010303000302000037
:00000001FF
