:100000000C942A000C943F000C943F000C943F0089
:100010000C943F000C943F000C943F000C943F0064
:100020000C943F000C943F000C943F000C943F0054
:100030000C943F000C943F000C943F000C943F0044
:100040000C943F000C943F000C943F000C943F0034
:100050000C943F0011241FBECFE5D4E0DEBFCDBF1E
:1000600010E0A0E6B0E0EEE5FEE002C005900D92E3
:10007000A637B107D9F70E94D3050C942D070C942D
:100080000000DF93CF9300D000D000D0CDB7DEB713
:100090009B838A836C83EA81FB818081EA81FB8177
:1000A0009181692F41E00E94BF00EA81FB8180813C
:1000B000EA81FB819281692F41E00E94BF0081E0CB
:1000C00089838C81282F30E03E832D838D819E8112
:1000D00081309105F9F02D813E812230310579F191
:1000E0008D819E81009709F03FC0EA81FB8180816C
:1000F000EA81FB819181692F40E00E94CE01EA8173
:10010000FB818081EA81FB819281692F41E00E941D
:10011000CE012BC0EA81FB818081EA81FB81928143
:10012000692F40E00E94CE01EA81FB818081EA8153
:10013000FB819181692F41E00E94CE0116C0EA81C6
:10014000FB818081EA81FB819181692F40E00E94DF
:10015000CE01EA81FB818081EA81FB819281692F56
:1001600040E00E94CE0101C01982898126960FB617
:10017000F894DEBF0FBECDBFCF91DF910895DF931E
:10018000CF93CDB7DEB728970FB6F894DEBF0FBE7A
:10019000CDBF8A836B834C8381E089838A818430DD
:1001A00008F0F1C08B81883008F0EDC08C8181307F
:1001B00009F06FC08A81282F30E038872F838F8124
:1001C00098858130910549F12F813885223031059C
:1001D0002CF48F819885009761F0D6C02F813885E7
:1001E0002230310571F18F81988583309105E9F1D5
:1001F000CBC0AAE3B0E0EAE3F0E08081482F8B8136
:10020000282F30E081E090E0022E02C0880F991F75
:100210000A94E2F7842B8C93B7C0A7E3B0E0E7E33E
:10022000F0E08081482F8B81282F30E081E090E042
:10023000022E02C0880F991F0A94E2F7842B8C9338
:10024000A3C0A4E3B0E0E4E3F0E08081482F8B8119
:10025000282F30E081E090E0022E02C0880F991F25
:100260000A94E2F7842B8C938FC0A1E3B0E0E1E322
:10027000F0E08081482F8B81282F30E081E090E0F2
:10028000022E02C0880F991F0A94E2F7842B8C93E8
:100290007BC08C81882309F074C08A81282F30E0CC
:1002A0003E832D838D819E818130910559F12D8171
:1002B0003E81223031052CF48D819E81009769F0BA
:1002C00063C02D813E812230310589F18D819E816F
:1002D0008330910509F440C057C0AAE3B0E0EAE3D7
:1002E000F0E08081482F8B81282F30E081E090E082
:1002F000022E02C0880F991F0A94E2F7809584238A
:100300008C9342C0A7E3B0E0E7E3F0E08081482FA0
:100310008B81282F30E081E090E0022E02C0880F10
:10032000991F0A94E2F7809584238C932DC0A4E34F
:10033000B0E0E4E3F0E08081482F8B81282F30E0AB
:1003400081E090E0022E02C0880F991F0A94E2F724
:10035000809584238C9318C0A1E3B0E0E1E3F0E042
:100360008081482F8B81282F30E081E090E0022EA1
:1003700002C0880F991F0A94E2F7809584238C931A
:1003800003C0198201C01982898128960FB6F8949A
:10039000DEBF0FBECDBFCF91DF910895DF93CF9326
:1003A000CDB7DEB728970FB6F894DEBF0FBECDBF2E
:1003B0008A836B834C8381E089838A81843008F04F
:1003C000F1C08B81883008F0EDC08C81813009F05C
:1003D0006FC08A81282F30E038872F838F819885DE
:1003E0008130910549F12F813885223031052CF477
:1003F0008F819885009761F0D6C02F813885223093
:10040000310571F18F81988583309105E9F1CBC079
:10041000ABE3B0E0EBE3F0E08081482F8B81282F45
:1004200030E081E090E0022E02C0880F991F0A940C
:10043000E2F7842B8C93B7C0A8E3B0E0E8E3F0E0E8
:100440008081482F8B81282F30E081E090E0022EC0
:1004500002C0880F991F0A94E2F7842B8C93A3C0E3
:10046000A5E3B0E0E5E3F0E08081482F8B81282F01
:1004700030E081E090E0022E02C0880F991F0A94BC
:10048000E2F7842B8C938FC0A2E3B0E0E2E3F0E0CC
:100490008081482F8B81282F30E081E090E0022E70
:1004A00002C0880F991F0A94E2F7842B8C937BC0BB
:1004B0008C81882309F074C08A81282F30E03E8324
:1004C0002D838D819E818130910559F12D813E8151
:1004D000223031052CF48D819E81009769F063C034
:1004E0002D813E812230310589F18D819E818330BD
:1004F000910509F440C057C0ABE3B0E0EBE3F0E096
:100500008081482F8B81282F30E081E090E0022EFF
:1005100002C0880F991F0A94E2F7809584238C9378
:1005200042C0A8E3B0E0E8E3F0E08081482F8B818F
:10053000282F30E081E090E0022E02C0880F991F42
:100540000A94E2F7809584238C932DC0A5E3B0E054
:10055000E5E3F0E08081482F8B81282F30E081E0B7
:1005600090E0022E02C0880F991F0A94E2F780954E
:1005700084238C9318C0A2E3B0E0E2E3F0E0808132
:10058000482F8B81282F30E081E090E0022E02C0BE
:10059000880F991F0A94E2F7809584238C9303C0F7
:1005A000198201C01982898128960FB6F894DEBF9E
:1005B0000FBECDBFCF91DF910895DF93CF93CDB71D
:1005C000DEB727970FB6F894DEBF0FBECDBF8A8384
:1005D0006B835D834C8381E089838A81843008F05A
:1005E000A6C08B81883008F0A2C08A81282F30E015
:1005F0003F832E834E815F8141305105C1F18E8151
:100600009F818230910534F42E813F81211531057F
:1006100071F08EC04E815F814230510509F447C0B0
:100620008E819F818330910509F461C081C0E9E327
:10063000F0E08081482F50E08B81282F30E081E06E
:1006400090E002C0880F991F2A95E2F79A012823AB
:1006500039238B81882F90E0A90102C055954795D9
:100660008A95E2F7CA01EC81FD81808361C0E6E3EF
:10067000F0E08081482F50E08B81282F30E081E02E
:1006800090E002C0880F991F2A95E2F79A0128236B
:1006900039238B81882F90E0A90102C05595479599
:1006A0008A95E2F7CA01EC81FD81808341C0E3E3D2
:1006B000F0E08081482F50E08B81282F30E081E0EE
:1006C00090E002C0880F991F2A95E2F79A0128232B
:1006D00039238B81882F90E0A90102C05595479559
:1006E0008A95E2F7CA01EC81FD81808321C0E0E3B5
:1006F000F0E08081482F50E08B81282F30E081E0AE
:1007000090E002C0880F991F2A95E2F79A012823EA
:1007100039238B81882F90E0A90102C05595479518
:100720008A95E2F7CA01EC81FD81808301C01982BC
:10073000898127960FB6F894DEBF0FBECDBFCF914B
:10074000DF910895DF93CF9300D000D00F92CDB703
:10075000DEB78A836B8381E089838B81883008F0E0
:100760006FC08A81282F30E03D832C838C819D814E
:100770008130910549F12C813D81223031052CF4E5
:100780008C819D81009761F05CC02C813D8122307D
:10079000310571F18C819D8183309105E9F151C062
:1007A000ABE3B0E0EBE3F0E08081482F8B81282FB2
:1007B00030E081E090E0022E02C0880F991F0A9479
:1007C000E2F784278C933DC0A8E3B0E0E8E3F0E0D3
:1007D0008081482F8B81282F30E081E090E0022E2D
:1007E00002C0880F991F0A94E2F784278C9329C0CE
:1007F000A5E3B0E0E5E3F0E08081482F8B81282F6E
:1008000030E081E090E0022E02C0880F991F0A9428
:10081000E2F784278C9315C0A2E3B0E0E2E3F0E0B6
:100820008081482F8B81282F30E081E090E0022EDC
:1008300002C0880F991F0A94E2F784278C9301C0A5
:10084000198289810F900F900F900F900F90CF9188
:10085000DF910895DF93CF9300D000D00F92CDB7F2
:10086000DEB78A836B8381E089838A818430A8F52F
:100870008A81282F30E03D832C838C819D818130BB
:100880009105D1F02C813D81223031052CF48C81F1
:100890009D81009761F01FC02C813D812230310580
:1008A00081F08C819D818330910581F014C0EAE351
:1008B000F0E08B81808312C0E7E3F0E08B818083DE
:1008C0000DC0E4E3F0E08B81808308C0E1E3F0E059
:1008D0008B81808303C0198201C0198289810F90A6
:1008E0000F900F900F900F90CF91DF910895DF93AD
:1008F000CF9300D000D00F92CDB7DEB78A836B8341
:1009000081E089838A818430A8F58A81282F30E0AC
:100910003D832C838C819D8181309105D1F02C8188
:100920003D81223031052CF48C819D81009761F04E
:100930001FC02C813D812230310581F08C819D8149
:100940008330910581F014C0EBE3F0E08B8180836C
:1009500012C0E8E3F0E08B8180830DC0E5E3F0E0B6
:100960008B81808308C0E2E3F0E08B81808303C049
:10097000198201C0198289810F900F900F900F90FA
:100980000F90CF91DF910895DF93CF9300D000D0E7
:10099000CDB7DEB78A8381E089838A81843008F00D
:1009A0003FC08A81282F30E03C832B838B819C8140
:1009B00081309105E9F02B813C81223031052CF406
:1009C0008B819C81009761F02CC02B813C8122306F
:1009D0003105B1F08B819C8183309105C9F021C034
:1009E000ABE3B0E0EBE3F0E0808180958C9319C03D
:1009F000A8E3B0E0E8E3F0E0808180958C9311C03B
:100A0000A5E3B0E0E5E3F0E0808180958C9309C038
:100A1000A2E3B0E0E2E3F0E0808180958C9301C036
:100A2000198289810F900F900F900F90CF91DF91D5
:100A30000895DF93CF9300D000D000D0CDB7DEB7BC
:100A40008A837C836B8381E089838A818430E8F5A3
:100A50008A81282F30E03E832D838D819E818130D5
:100A60009105E1F02D813E81223031052CF48D81FC
:100A70009E81009761F027C02D813E812230310593
:100A8000A1F08D819E8183309105B1F01CC0E9E316
:100A9000F0E08081EB81FC81808318C0E6E3F0E028
:100AA0008081EB81FC81808311C0E3E3F0E08081F1
:100AB000EB81FC8180830AC0E0E3F0E08081EB8180
:100AC000FC81808303C0198201C019828981269626
:100AD0000FB6F894DEBF0FBECDBFCF91DF91089562
:100AE000DF93CF9300D00F92CDB7DEB769837A83BF
:100AF0008B8389819A81692F40E00E94BF008B819E
:100B0000882331F489819A81692F41E00E94CE01C6
:100B10000F900F900F90CF91DF910895DF93CF93B7
:100B200000D000D00F92CDB7DEB76B837C838D836E
:100B300019821A828D81882319F08D818130A1F468
:100B40008B819C819E012E5F3F4F692FA9010E94DE
:100B5000DD028A81882319F481E089831BC08A81A0
:100B60008130C1F4198216C08D81823099F48B8155
:100B70009C819E012E5F3F4F692FA9010E94DD02DB
:100B80008A81882311F4198205C08A81813011F489
:100B900081E0898389810F900F900F900F900F90C3
:100BA000CF91DF910895DF93CF93CDB7DEB7E8976C
:100BB0000FB6F894DEBF0FBECDBFCE0101969F8B5E
:100BC0008E8BE2E7F0E0F98FE88FF3E0FA8FE88DA3
:100BD000F98D0080888D998D0196998F888FEE8987
:100BE000FF8900828E899F8901969F8B8E8B9A8DBB
:100BF00091509A8FEA8DEE2351F7CE0104969C8F87
:100C00008B8FEFE6F0E0FE8FED8FF3E0FF8FED8D41
:100C1000FE8D00808D8D9E8D01969E8F8D8FEB8D2C
:100C2000FC8D00828B8D9C8D01969C8F8B8F9F8D70
:100C300091509F8FEF8DEE2351F7CE01079699A328
:100C400088A3ECE6F0E0FBA3EAA3F3E0FCA3EAA1AF
:100C5000FBA100808AA19BA101969BA38AA3E8A186
:100C6000F9A1008288A199A1019699A388A39CA1CA
:100C700091509CA3ECA1EE2351F7CE010A969EA3BE
:100C80008DA3E9E6F0E0F8A7EFA3F3E0F9A7EFA161
:100C9000F8A500808FA198A5019698A78FA3EDA134
:100CA000FEA100828DA19EA101969EA38DA399A570
:100CB000915099A7E9A5EE2351F7CE010D969BA778
:100CC0008AA7E6E6F0E0FDA7ECA7F3E0FEA7ECA517
:100CD000FDA500808CA59DA501969DA78CA7EAA5E2
:100CE000FBA500828AA59BA501969BA78AA79EA526
:100CF00091509EA7EEA5EE2351F7CE01409698ABFA
:100D00008FA7E3E6F0E0FAABE9ABF3E0FBABE9A9D0
:100D1000FAA9008089A99AA901969AAB89ABEFA597
:100D2000F8A900828FA598A9019698AB8FA79BA9D7
:100D300091509BABEBA9EE2351F7CE0143969DABAF
:100D40008CABE0E6F0E0FFABEEABF3E0F8AFEEA982
:100D5000FFA900808EA99FA901969FAB8EABECA93D
:100D6000FDA900828CA99DA901969DAB8CAB98AD85
:100D7000915098AFE8ADEE2351F769817A818B816C
:100D80000E9470056C817D818E810E9470056F814B
:100D9000788589850E9470056A857B858C850E948F
:100DA00070056D857E858F850E94700569817A81C9
:100DB0008B810E948E05882351F0CE01409662E01F
:100DC0000E944100CE01439662E00E9441006C8186
:100DD0007D818E810E948E05882351F0CE01409640
:100DE00060E00E944100CE01439660E00E94410015
:100DF0006F81788589850E948E05882351F0CE0108
:100E0000409661E00E944100CE01439661E00E945D
:100E100041006A857B858C850E948E05882351F070
:100E2000CE01409660E00E944100CE01439661E011
:100E30000E9441006D857E858F850E948E058823E6
:100E400009F4B4CFCE01409661E00E944100CE018A
:0E0E5000439660E00E944100A9CFF894FFCFC6
:100E5E000202030200010004000003000002000071
:060E6E000100000000007D
:00000001FF
